{
  "_format": "hh-sol-artifact-1",
  "contractName": "Ascai",
  "sourceName": "contracts/Ascai.sol",
  "abi": [
    {
      "inputs": [],
      "stateMutability": "nonpayable",
      "type": "constructor"
    },
    {
      "anonymous": false,
      "inputs": [
        {
          "indexed": true,
          "internalType": "address",
          "name": "user",
          "type": "address"
        },
        {
          "indexed": false,
          "internalType": "uint256",
          "name": "endDate",
          "type": "uint256"
        }
      ],
      "name": "SubscriptionPurchased",
      "type": "event"
    },
    {
      "anonymous": false,
      "inputs": [
        {
          "indexed": true,
          "internalType": "address",
          "name": "owner",
          "type": "address"
        },
        {
          "indexed": false,
          "internalType": "uint256",
          "name": "amount",
          "type": "uint256"
        }
      ],
      "name": "Withdrawal",
      "type": "event"
    },
    {
      "inputs": [],
      "name": "getContractBalance",
      "outputs": [
        {
          "internalType": "uint256",
          "name": "",
          "type": "uint256"
        }
      ],
      "stateMutability": "view",
      "type": "function"
    },
    {
      "inputs": [],
      "name": "getSubscriptionValidity",
      "outputs": [
        {
          "components": [
            {
              "internalType": "uint256",
              "name": "endDate",
              "type": "uint256"
            }
          ],
          "internalType": "struct Ascai.Subscription",
          "name": "",
          "type": "tuple"
        }
      ],
      "stateMutability": "view",
      "type": "function"
    },
    {
      "inputs": [
        {
          "internalType": "address",
          "name": "_user",
          "type": "address"
        }
      ],
      "name": "isSubscriptionActive",
      "outputs": [
        {
          "internalType": "bool",
          "name": "",
          "type": "bool"
        }
      ],
      "stateMutability": "view",
      "type": "function"
    },
    {
      "inputs": [],
      "name": "owner",
      "outputs": [
        {
          "internalType": "address",
          "name": "",
          "type": "address"
        }
      ],
      "stateMutability": "view",
      "type": "function"
    },
    {
      "inputs": [],
      "name": "purchaseSubscription",
      "outputs": [],
      "stateMutability": "payable",
      "type": "function"
    },
    {
      "inputs": [],
      "name": "subscriptionDuration",
      "outputs": [
        {
          "internalType": "uint256",
          "name": "",
          "type": "uint256"
        }
      ],
      "stateMutability": "view",
      "type": "function"
    },
    {
      "inputs": [],
      "name": "subscriptionPrice",
      "outputs": [
        {
          "internalType": "uint256",
          "name": "",
          "type": "uint256"
        }
      ],
      "stateMutability": "view",
      "type": "function"
    },
    {
      "inputs": [
        {
          "internalType": "address",
          "name": "",
          "type": "address"
        }
      ],
      "name": "subscriptions",
      "outputs": [
        {
          "internalType": "uint256",
          "name": "endDate",
          "type": "uint256"
        }
      ],
      "stateMutability": "view",
      "type": "function"
    },
    {
      "inputs": [
        {
          "internalType": "uint256",
          "name": "_newDuration",
          "type": "uint256"
        }
      ],
      "name": "updateSubscriptionDuration",
      "outputs": [],
      "stateMutability": "nonpayable",
      "type": "function"
    },
    {
      "inputs": [
        {
          "internalType": "uint256",
          "name": "_newPrice",
          "type": "uint256"
        }
      ],
      "name": "updateSubscriptionPrice",
      "outputs": [],
      "stateMutability": "nonpayable",
      "type": "function"
    },
    {
      "inputs": [],
      "name": "withdraw",
      "outputs": [],
      "stateMutability": "nonpayable",
      "type": "function"
    },
    {
      "stateMutability": "payable",
      "type": "receive"
    }
  ],
  "bytecode": "0x60806040526103e860015562278d0060025534801561001d57600080fd5b50336000806101000a81548173ffffffffffffffffffffffffffffffffffffffff021916908373ffffffffffffffffffffffffffffffffffffffff160217905550610ce18061006d6000396000f3fe6080604052600436106100a05760003560e01c80636f9fb98a116100645780636f9fb98a1461017d5780637a94a633146101a85780638da5cb5b146101d3578063bdc8e54c146101fe578063db1bed2214610229578063f046395a14610233576100a7565b806304c9927b146100ac57806314401329146100d55780631e0476d6146101125780633a32e9361461013d5780633ccfd60b14610166576100a7565b366100a757005b600080fd5b3480156100b857600080fd5b506100d360048036038101906100ce91906108b7565b610270565b005b3480156100e157600080fd5b506100fc60048036038101906100f79190610942565b610308565b604051610109919061098a565b60405180910390f35b34801561011e57600080fd5b50610127610357565b60405161013491906109d0565b60405180910390f35b34801561014957600080fd5b50610164600480360381019061015f91906108b7565b6103b8565b005b34801561017257600080fd5b5061017b610450565b005b34801561018957600080fd5b506101926105fe565b60405161019f91906109fa565b60405180910390f35b3480156101b457600080fd5b506101bd610695565b6040516101ca91906109fa565b60405180910390f35b3480156101df57600080fd5b506101e861069b565b6040516101f59190610a24565b60405180910390f35b34801561020a57600080fd5b506102136106bf565b60405161022091906109fa565b60405180910390f35b6102316106c5565b005b34801561023f57600080fd5b5061025a60048036038101906102559190610942565b61084b565b60405161026791906109fa565b60405180910390f35b60008054906101000a900473ffffffffffffffffffffffffffffffffffffffff1673ffffffffffffffffffffffffffffffffffffffff163373ffffffffffffffffffffffffffffffffffffffff16146102fe576040517f08c379a00000000000000000000000000000000000000000000000000000000081526004016102f590610ac2565b60405180910390fd5b8060028190555050565b600042600360008473ffffffffffffffffffffffffffffffffffffffff1673ffffffffffffffffffffffffffffffffffffffff1681526020019081526020016000206000015410159050919050565b61035f610869565b600360003373ffffffffffffffffffffffffffffffffffffffff1673ffffffffffffffffffffffffffffffffffffffff168152602001908152602001600020604051806020016040529081600082015481525050905090565b60008054906101000a900473ffffffffffffffffffffffffffffffffffffffff1673ffffffffffffffffffffffffffffffffffffffff163373ffffffffffffffffffffffffffffffffffffffff1614610446576040517f08c379a000000000000000000000000000000000000000000000000000000000815260040161043d90610ac2565b60405180910390fd5b8060018190555050565b60008054906101000a900473ffffffffffffffffffffffffffffffffffffffff1673ffffffffffffffffffffffffffffffffffffffff163373ffffffffffffffffffffffffffffffffffffffff16146104de576040517f08c379a00000000000000000000000000000000000000000000000000000000081526004016104d590610ac2565b60405180910390fd5b600047905060008111610526576040517f08c379a000000000000000000000000000000000000000000000000000000000815260040161051d90610b2e565b60405180910390fd5b60008054906101000a900473ffffffffffffffffffffffffffffffffffffffff1673ffffffffffffffffffffffffffffffffffffffff166108fc829081150290604051600060405180830381858888f1935050505015801561058c573d6000803e3d6000fd5b5060008054906101000a900473ffffffffffffffffffffffffffffffffffffffff1673ffffffffffffffffffffffffffffffffffffffff167f7fcf532c15f0a6db0bd6d0e038bea71d30d808c7d98cb3bf7268a95bf5081b65826040516105f391906109fa565b60405180910390a250565b60008060009054906101000a900473ffffffffffffffffffffffffffffffffffffffff1673ffffffffffffffffffffffffffffffffffffffff163373ffffffffffffffffffffffffffffffffffffffff161461068f576040517f08c379a000000000000000000000000000000000000000000000000000000000815260040161068690610ac2565b60405180910390fd5b47905090565b60025481565b60008054906101000a900473ffffffffffffffffffffffffffffffffffffffff1681565b60015481565b6001543414610709576040517f08c379a000000000000000000000000000000000000000000000000000000000815260040161070090610b9a565b60405180910390fd5b42600360003373ffffffffffffffffffffffffffffffffffffffff1673ffffffffffffffffffffffffffffffffffffffff168152602001908152602001600020600001541061078d576040517f08c379a000000000000000000000000000000000000000000000000000000000815260040161078490610c06565b60405180910390fd5b60006002544261079d9190610c55565b9050604051806020016040528082815250600360003373ffffffffffffffffffffffffffffffffffffffff1673ffffffffffffffffffffffffffffffffffffffff168152602001908152602001600020600082015181600001559050503373ffffffffffffffffffffffffffffffffffffffff167f799bcc5d05a0d37fc0012dba6e154d1353b3b36495bf076daf88f7b1428a3f818260405161084091906109fa565b60405180910390a250565b60036020528060005260406000206000915090508060000154905081565b6040518060200160405280600081525090565b600080fd5b6000819050919050565b61089481610881565b811461089f57600080fd5b50565b6000813590506108b18161088b565b92915050565b6000602082840312156108cd576108cc61087c565b5b60006108db848285016108a2565b91505092915050565b600073ffffffffffffffffffffffffffffffffffffffff82169050919050565b600061090f826108e4565b9050919050565b61091f81610904565b811461092a57600080fd5b50565b60008135905061093c81610916565b92915050565b6000602082840312156109585761095761087c565b5b60006109668482850161092d565b91505092915050565b60008115159050919050565b6109848161096f565b82525050565b600060208201905061099f600083018461097b565b92915050565b6109ae81610881565b82525050565b6020820160008201516109ca60008501826109a5565b50505050565b60006020820190506109e560008301846109b4565b92915050565b6109f481610881565b82525050565b6000602082019050610a0f60008301846109eb565b92915050565b610a1e81610904565b82525050565b6000602082019050610a396000830184610a15565b92915050565b600082825260208201905092915050565b7f4f6e6c7920746865206f776e65722063616e2063616c6c20746869732066756e60008201527f6374696f6e000000000000000000000000000000000000000000000000000000602082015250565b6000610aac602583610a3f565b9150610ab782610a50565b604082019050919050565b60006020820190508181036000830152610adb81610a9f565b9050919050565b7f436f6e74726163742062616c616e636520697320656d70747900000000000000600082015250565b6000610b18601983610a3f565b9150610b2382610ae2565b602082019050919050565b60006020820190508181036000830152610b4781610b0b565b9050919050565b7f496e636f727265637420737562736372697074696f6e20707269636500000000600082015250565b6000610b84601c83610a3f565b9150610b8f82610b4e565b602082019050919050565b60006020820190508181036000830152610bb381610b77565b9050919050565b7f537562736372697074696f6e206973207374696c6c2061637469766500000000600082015250565b6000610bf0601c83610a3f565b9150610bfb82610bba565b602082019050919050565b60006020820190508181036000830152610c1f81610be3565b9050919050565b7f4e487b7100000000000000000000000000000000000000000000000000000000600052601160045260246000fd5b6000610c6082610881565b9150610c6b83610881565b9250827fffffffffffffffffffffffffffffffffffffffffffffffffffffffffffffffff03821115610ca057610c9f610c26565b5b82820190509291505056fea2646970667358221220c8bcb57128bbfafcd14027ce824e402fe55118e860920c08d0cf5897881c355e64736f6c634300080a0033",
  "linkReferences": {},
  "deployedLinkReferences": {}
}